{
  "contractName": "AgroKart",
  "abi": [
    {
      "inputs": [
        {
          "internalType": "address",
          "name": "_token",
          "type": "address"
        },
        {
          "internalType": "address",
          "name": "_dispute",
          "type": "address"
        }
      ],
      "stateMutability": "nonpayable",
      "type": "constructor"
    },
    {
      "anonymous": false,
      "inputs": [
        {
          "indexed": true,
          "internalType": "address",
          "name": "user",
          "type": "address"
        },
        {
          "indexed": false,
          "internalType": "bytes32",
          "name": "name",
          "type": "bytes32"
        }
      ],
      "name": "SignUp",
      "type": "event"
    },
    {
      "anonymous": false,
      "inputs": [
        {
          "indexed": false,
          "internalType": "bytes32",
          "name": "user",
          "type": "bytes32"
        },
        {
          "indexed": false,
          "internalType": "bytes32",
          "name": "name",
          "type": "bytes32"
        },
        {
          "indexed": false,
          "internalType": "uint256",
          "name": "product_id",
          "type": "uint256"
        }
      ],
      "name": "addItem",
      "type": "event"
    },
    {
      "anonymous": false,
      "inputs": [
        {
          "indexed": true,
          "internalType": "address",
          "name": "user",
          "type": "address"
        },
        {
          "indexed": false,
          "internalType": "uint256",
          "name": "id",
          "type": "uint256"
        }
      ],
      "name": "order",
      "type": "event"
    },
    {
      "inputs": [
        {
          "internalType": "address",
          "name": "_seller",
          "type": "address"
        }
      ],
      "name": "Orders",
      "outputs": [
        {
          "internalType": "uint32[]",
          "name": "orderId",
          "type": "uint32[]"
        }
      ],
      "stateMutability": "view",
      "type": "function"
    },
    {
      "inputs": [],
      "name": "currentOrderID",
      "outputs": [
        {
          "internalType": "uint256",
          "name": "",
          "type": "uint256"
        }
      ],
      "stateMutability": "view",
      "type": "function"
    },
    {
      "inputs": [
        {
          "internalType": "uint32",
          "name": "_id",
          "type": "uint32"
        }
      ],
      "name": "marketOrder",
      "outputs": [
        {
          "internalType": "address",
          "name": "BuyerAddr",
          "type": "address"
        },
        {
          "internalType": "uint256",
          "name": "timeStamp",
          "type": "uint256"
        },
        {
          "internalType": "string",
          "name": "orderDetails",
          "type": "string"
        },
        {
          "internalType": "uint256",
          "name": "totalPrice",
          "type": "uint256"
        }
      ],
      "stateMutability": "view",
      "type": "function"
    },
    {
      "inputs": [
        {
          "internalType": "uint32",
          "name": "_id",
          "type": "uint32"
        }
      ],
      "name": "product1",
      "outputs": [
        {
          "internalType": "bytes32",
          "name": "itemName",
          "type": "bytes32"
        },
        {
          "internalType": "uint256",
          "name": "itemPrice",
          "type": "uint256"
        },
        {
          "internalType": "bytes32",
          "name": "imageId",
          "type": "bytes32"
        },
        {
          "internalType": "uint32",
          "name": "availableCount",
          "type": "uint32"
        }
      ],
      "stateMutability": "view",
      "type": "function"
    },
    {
      "inputs": [
        {
          "internalType": "uint32",
          "name": "_id",
          "type": "uint32"
        }
      ],
      "name": "product2",
      "outputs": [
        {
          "internalType": "uint8",
          "name": "itemColor",
          "type": "uint8"
        },
        {
          "internalType": "uint256",
          "name": "disputePrice",
          "type": "uint256"
        },
        {
          "internalType": "uint8",
          "name": "itemType",
          "type": "uint8"
        },
        {
          "internalType": "bytes32",
          "name": "itemDetails",
          "type": "bytes32"
        },
        {
          "internalType": "bytes32",
          "name": "itemBrand",
          "type": "bytes32"
        }
      ],
      "stateMutability": "view",
      "type": "function"
    },
    {
      "inputs": [
        {
          "internalType": "uint32",
          "name": "_o_id",
          "type": "uint32"
        },
        {
          "internalType": "uint32",
          "name": "_p_id",
          "type": "uint32"
        }
      ],
      "name": "productCount",
      "outputs": [
        {
          "internalType": "uint32",
          "name": "count",
          "type": "uint32"
        }
      ],
      "stateMutability": "view",
      "type": "function"
    },
    {
      "inputs": [
        {
          "internalType": "uint32",
          "name": "_o_id",
          "type": "uint32"
        },
        {
          "internalType": "uint32",
          "name": "_p_id",
          "type": "uint32"
        }
      ],
      "name": "productOrder",
      "outputs": [
        {
          "internalType": "bool",
          "name": "isConfirmed",
          "type": "bool"
        },
        {
          "internalType": "bool",
          "name": "isRejected",
          "type": "bool"
        },
        {
          "internalType": "bool",
          "name": "isDispute",
          "type": "bool"
        },
        {
          "internalType": "bool",
          "name": "isShipped",
          "type": "bool"
        },
        {
          "internalType": "bool",
          "name": "isCancelled",
          "type": "bool"
        },
        {
          "internalType": "bool",
          "name": "confirmDelivery",
          "type": "bool"
        }
      ],
      "stateMutability": "view",
      "type": "function"
    },
    {
      "inputs": [
        {
          "internalType": "address",
          "name": "_seller",
          "type": "address"
        },
        {
          "internalType": "uint32",
          "name": "_o_id",
          "type": "uint32"
        }
      ],
      "name": "productsList",
      "outputs": [
        {
          "internalType": "uint32[]",
          "name": "prodId",
          "type": "uint32[]"
        }
      ],
      "stateMutability": "view",
      "type": "function"
    },
    {
      "inputs": [],
      "name": "totalProductID",
      "outputs": [
        {
          "internalType": "uint256",
          "name": "",
          "type": "uint256"
        }
      ],
      "stateMutability": "view",
      "type": "function"
    },
    {
      "inputs": [],
      "name": "userDetails",
      "outputs": [
        {
          "internalType": "bytes32",
          "name": "userName",
          "type": "bytes32"
        },
        {
          "internalType": "uint64",
          "name": "userContact",
          "type": "uint64"
        },
        {
          "internalType": "bytes32",
          "name": "userEmail",
          "type": "bytes32"
        },
        {
          "internalType": "string",
          "name": "userAddr",
          "type": "string"
        },
        {
          "internalType": "uint32[]",
          "name": "orders",
          "type": "uint32[]"
        },
        {
          "internalType": "uint8",
          "name": "userType",
          "type": "uint8"
        }
      ],
      "stateMutability": "view",
      "type": "function"
    },
    {
      "inputs": [
        {
          "internalType": "address",
          "name": "_addr",
          "type": "address"
        }
      ],
      "name": "userOrderDetails",
      "outputs": [
        {
          "internalType": "bytes32",
          "name": "userName",
          "type": "bytes32"
        },
        {
          "internalType": "uint256",
          "name": "userContact",
          "type": "uint256"
        },
        {
          "internalType": "bytes32",
          "name": "userEmail",
          "type": "bytes32"
        },
        {
          "internalType": "string",
          "name": "userAddr",
          "type": "string"
        }
      ],
      "stateMutability": "view",
      "type": "function"
    },
    {
      "inputs": [],
      "name": "checkUser",
      "outputs": [
        {
          "internalType": "uint256",
          "name": "status",
          "type": "uint256"
        }
      ],
      "stateMutability": "view",
      "type": "function"
    },
    {
      "inputs": [
        {
          "internalType": "bytes32",
          "name": "_userName",
          "type": "bytes32"
        },
        {
          "internalType": "uint64",
          "name": "_userContact",
          "type": "uint64"
        },
        {
          "internalType": "bytes32",
          "name": "_userEmail",
          "type": "bytes32"
        },
        {
          "internalType": "string",
          "name": "_userAddr",
          "type": "string"
        },
        {
          "internalType": "uint8",
          "name": "_type",
          "type": "uint8"
        }
      ],
      "name": "userSignUp",
      "outputs": [],
      "stateMutability": "nonpayable",
      "type": "function"
    },
    {
      "inputs": [
        {
          "internalType": "bytes32",
          "name": "_itemName",
          "type": "bytes32"
        },
        {
          "internalType": "uint8",
          "name": "_itemType",
          "type": "uint8"
        },
        {
          "internalType": "uint256",
          "name": "_itemPrice",
          "type": "uint256"
        },
        {
          "internalType": "uint32",
          "name": "_availableCount",
          "type": "uint32"
        },
        {
          "internalType": "bytes32",
          "name": "_itemDetails",
          "type": "bytes32"
        },
        {
          "internalType": "bytes32",
          "name": "_itemBrand",
          "type": "bytes32"
        },
        {
          "internalType": "uint8",
          "name": "_itemColor",
          "type": "uint8"
        },
        {
          "internalType": "bytes32",
          "name": "_imageId",
          "type": "bytes32"
        }
      ],
      "name": "addProduct",
      "outputs": [],
      "stateMutability": "nonpayable",
      "type": "function"
    },
    {
      "inputs": [
        {
          "internalType": "string",
          "name": "_orderDetails",
          "type": "string"
        },
        {
          "internalType": "uint32[]",
          "name": "_prodIds",
          "type": "uint32[]"
        },
        {
          "internalType": "uint32[]",
          "name": "_prodCounts",
          "type": "uint32[]"
        }
      ],
      "name": "createOrder",
      "outputs": [],
      "stateMutability": "nonpayable",
      "type": "function"
    },
    {
      "inputs": [
        {
          "internalType": "uint32",
          "name": "_o_Id",
          "type": "uint32"
        },
        {
          "internalType": "uint32",
          "name": "_p_Id",
          "type": "uint32"
        }
      ],
      "name": "confirmOrder",
      "outputs": [],
      "stateMutability": "nonpayable",
      "type": "function"
    },
    {
      "inputs": [
        {
          "internalType": "uint32",
          "name": "_o_Id",
          "type": "uint32"
        },
        {
          "internalType": "uint32",
          "name": "_p_Id",
          "type": "uint32"
        }
      ],
      "name": "shipOrder",
      "outputs": [],
      "stateMutability": "nonpayable",
      "type": "function"
    }
  ],
  "bytecode": "0x608060405234801561001057600080fd5b506040516136da3803806136da8339818101604052604081101561003357600080fd5b81019080805190602001909291908051906020019092919050505060646000800160006101000a81548163ffffffff021916908363ffffffff1602179055506127106000800160046101000a81548163ffffffff021916908363ffffffff16021790555060b460006001018190555081600860006101000a81548173ffffffffffffffffffffffffffffffffffffffff021916908373ffffffffffffffffffffffffffffffffffffffff16021790555080600960006101000a81548173ffffffffffffffffffffffffffffffffffffffff021916908373ffffffffffffffffffffffffffffffffffffffff16021790555050506135a5806101356000396000f3fe608060405234801561001057600080fd5b506004361061010b5760003560e01c80637b931cf3116100a2578063c156254711610071578063c156254714610747578063e568aab514610765578063ef1645c7146107c3578063f65633bd146108e6578063f85ff9f9146109045761010b565b80637b931cf3146104d85780639800e04b146105cc5780639fe2ef321461067a578063bd5cb194146106dd5761010b565b806333a2ff9d116100de57806333a2ff9d146102e3578063403f0b491461036a5780634385bc9a146103eb578063543aa89a146104945761010b565b80631b13012b1461011057806328565974146101545780632df50d65146101ed5780632ec7e44d146102c5575b600080fd5b6101526004803603604081101561012657600080fd5b81019080803563ffffffff169060200190929190803563ffffffff1690602001909291905050506109d6565b005b6101966004803603602081101561016a57600080fd5b81019080803573ffffffffffffffffffffffffffffffffffffffff169060200190929190505050610e28565b6040518080602001828103825283818151815260200191508051906020019060200280838360005b838110156101d95780820151818401526020810190506101be565b505050509050019250505060405180910390f35b61021f6004803603602081101561020357600080fd5b81019080803563ffffffff169060200190929190505050610eee565b604051808573ffffffffffffffffffffffffffffffffffffffff16815260200184815260200180602001838152602001828103825284818151815260200191508051906020019080838360005b8381101561028757808201518184015260208101905061026c565b50505050905090810190601f1680156102b45780820380516001836020036101000a031916815260200191505b509550505050505060405180910390f35b6102cd611056565b6040518082815260200191505060405180910390f35b610325600480360360408110156102f957600080fd5b81019080803563ffffffff169060200190929190803563ffffffff169060200190929190505050611078565b60405180871515815260200186151581526020018515158152602001841515815260200183151581526020018215158152602001965050505050505060405180910390f35b6103e9600480360361010081101561038157600080fd5b8101908080359060200190929190803560ff16906020019092919080359060200190929190803563ffffffff1690602001909291908035906020019092919080359060200190929190803560ff16906020019092919080359060200190929190505050611277565b005b61043d6004803603604081101561040157600080fd5b81019080803573ffffffffffffffffffffffffffffffffffffffff169060200190929190803563ffffffff169060200190929190505050611739565b6040518080602001828103825283818151815260200191508051906020019060200280838360005b83811015610480578082015181840152602081019050610465565b505050509050019250505060405180910390f35b6104d6600480360360408110156104aa57600080fd5b81019080803563ffffffff169060200190929190803563ffffffff16906020019092919050505061181d565b005b6104e0611c6f565b604051808781526020018667ffffffffffffffff16815260200185815260200180602001806020018460ff168152602001838103835286818151815260200191508051906020019080838360005b8381101561054957808201518184015260208101905061052e565b50505050905090810190601f1680156105765780820380516001836020036101000a031916815260200191505b50838103825285818151815260200191508051906020019060200280838360005b838110156105b2578082015181840152602081019050610597565b505050509050019850505050505050505060405180910390f35b610678600480360360a08110156105e257600080fd5b8101908080359060200190929190803567ffffffffffffffff169060200190929190803590602001909291908035906020019064010000000081111561062757600080fd5b82018360208201111561063957600080fd5b8035906020019184600183028401116401000000008311171561065b57600080fd5b9091929391929390803560ff169060200190929190505050611f74565b005b6106ac6004803603602081101561069057600080fd5b81019080803563ffffffff169060200190929190505050612210565b604051808581526020018481526020018381526020018263ffffffff16815260200194505050505060405180910390f35b61070f600480360360208110156106f357600080fd5b81019080803563ffffffff1690602001909291905050506122cd565b604051808660ff1681526020018581526020018460ff1681526020018381526020018281526020019550505050505060405180910390f35b61074f6123bf565b6040518082815260200191505060405180910390f35b6107a76004803603604081101561077b57600080fd5b81019080803563ffffffff169060200190929190803563ffffffff1690602001909291905050506124a7565b604051808263ffffffff16815260200191505060405180910390f35b6108e4600480360360608110156107d957600080fd5b81019080803590602001906401000000008111156107f657600080fd5b82018360208201111561080857600080fd5b8035906020019184600183028401116401000000008311171561082a57600080fd5b90919293919293908035906020019064010000000081111561084b57600080fd5b82018360208201111561085d57600080fd5b8035906020019184602083028401116401000000008311171561087f57600080fd5b9091929391929390803590602001906401000000008111156108a057600080fd5b8201836020820111156108b257600080fd5b803590602001918460208302840111640100000000831117156108d457600080fd5b9091929391929390505050612500565b005b6108ee61305a565b6040518082815260200191505060405180910390f35b6109466004803603602081101561091a57600080fd5b81019080803573ffffffffffffffffffffffffffffffffffffffff16906020019092919050505061307c565b6040518085815260200184815260200183815260200180602001828103825283818151815260200191508051906020019080838360005b8381101561099857808201518184015260208101905061097d565b50505050905090810190601f1680156109c55780820380516001836020036101000a031916815260200191505b509550505050505060405180910390f35b6002600060020160003373ffffffffffffffffffffffffffffffffffffffff1673ffffffffffffffffffffffffffffffffffffffff16815260200190815260200160002060050160009054906101000a900460ff166002811115610a3657fe5b14610aa9576040517f08c379a000000000000000000000000000000000000000000000000000000000815260040180806020018281038252600b8152602001807f6f6e6c792073656c6c657200000000000000000000000000000000000000000081525060200191505060405180910390fd5b3373ffffffffffffffffffffffffffffffffffffffff16600060030160008363ffffffff1663ffffffff16815260200190815260200160002060090160009054906101000a900473ffffffffffffffffffffffffffffffffffffffff1673ffffffffffffffffffffffffffffffffffffffff1614610b8f576040517f08c379a000000000000000000000000000000000000000000000000000000000815260040180806020018281038252600b8152602001807f4f6e6c792053656c6c657200000000000000000000000000000000000000000081525060200191505060405180910390fd5b60011515600060040160008463ffffffff1663ffffffff16815260200190815260200160002060040160008363ffffffff1663ffffffff16815260200190815260200160002060009054906101000a900460ff161515148015610c45575060001515600060040160008463ffffffff1663ffffffff16815260200190815260200160002060050160008363ffffffff1663ffffffff16815260200190815260200160002060009054906101000a900460ff161515145b8015610ca4575060001515600060040160008463ffffffff1663ffffffff16815260200190815260200160002060060160008363ffffffff1663ffffffff16815260200190815260200160002060009054906101000a900460ff161515145b8015610d03575060001515600060040160008463ffffffff1663ffffffff168152602001908152602001600020600a0160008363ffffffff1663ffffffff16815260200190815260200160002060009054906101000a900460ff161515145b610d75576040517f08c379a00000000000000000000000000000000000000000000000000000000081526004018080602001828103825260188152602001807f436f6e646974696f6e73206e6f7420736174697366696564000000000000000081525060200191505060405180910390fd5b6001600060040160008463ffffffff1663ffffffff16815260200190815260200160002060050160008363ffffffff1663ffffffff16815260200190815260200160002060006101000a81548160ff0219169083151502179055503373ffffffffffffffffffffffffffffffffffffffff167f05b102e34405f020a7b4350207965d03947f653afdaaf43fa3a47493e4b1261d83604051808263ffffffff16815260200191505060405180910390a25050565b6060600060050160008373ffffffffffffffffffffffffffffffffffffffff1673ffffffffffffffffffffffffffffffffffffffff168152602001908152602001600020805480602002602001604051908101604052809291908181526020018280548015610ee257602002820191906000526020600020906000905b82829054906101000a900463ffffffff1663ffffffff1681526020019060040190602082600301049283019260010382029150808411610ea55790505b50505050509050919050565b600080606060008060040160008663ffffffff1663ffffffff16815260200190815260200160002060000160009054906101000a900473ffffffffffffffffffffffffffffffffffffffff16600060040160008763ffffffff1663ffffffff16815260200190815260200160002060010154600060040160008863ffffffff1663ffffffff168152602001908152602001600020600201600060040160008963ffffffff1663ffffffff16815260200190815260200160002060030154818054600181600116156101000203166002900480601f0160208091040260200160405190810160405280929190818152602001828054600181600116156101000203166002900480156110405780601f1061101557610100808354040283529160200191611040565b820191906000526020600020905b81548152906001019060200180831161102357829003601f168201915b5050505050915093509350935093509193509193565b60008060000160009054906101000a900463ffffffff1663ffffffff16905090565b600080600080600080600060040160008963ffffffff1663ffffffff16815260200190815260200160002060050160008863ffffffff1663ffffffff16815260200190815260200160002060009054906101000a900460ff16600060040160008a63ffffffff1663ffffffff16815260200190815260200160002060060160008963ffffffff1663ffffffff16815260200190815260200160002060009054906101000a900460ff16600060040160008b63ffffffff1663ffffffff16815260200190815260200160002060070160008a63ffffffff1663ffffffff16815260200190815260200160002060009054906101000a900460ff16600060040160008c63ffffffff1663ffffffff16815260200190815260200160002060080160008b63ffffffff1663ffffffff16815260200190815260200160002060009054906101000a900460ff16600060040160008d63ffffffff1663ffffffff168152602001908152602001600020600a0160008c63ffffffff1663ffffffff16815260200190815260200160002060009054906101000a900460ff16600060040160008e63ffffffff1663ffffffff16815260200190815260200160002060090160008d63ffffffff1663ffffffff16815260200190815260200160002060009054906101000a900460ff169550955095509550955095509295509295509295565b6002600060020160003373ffffffffffffffffffffffffffffffffffffffff1673ffffffffffffffffffffffffffffffffffffffff16815260200190815260200160002060050160009054906101000a900460ff1660028111156112d757fe5b1461134a576040517f08c379a000000000000000000000000000000000000000000000000000000000815260040180806020018281038252600b8152602001807f6f6e6c792073656c6c657200000000000000000000000000000000000000000081525060200191505060405180910390fd5b87600060030160008060000160009054906101000a900463ffffffff1663ffffffff1663ffffffff1681526020019081526020016000206000018190555086600060030160008060000160009054906101000a900463ffffffff1663ffffffff1663ffffffff16815260200190815260200160002060010160006101000a81548160ff021916908360ff1602179055506113ee60648761326690919063ffffffff16565b600060030160008060000160009054906101000a900463ffffffff1663ffffffff1663ffffffff1681526020019081526020016000206002018190555083600060030160008060000160009054906101000a900463ffffffff1663ffffffff1663ffffffff1681526020019081526020016000206003018190555082600060030160008060000160009054906101000a900463ffffffff1663ffffffff1663ffffffff1681526020019081526020016000206004018190555084600060030160008060000160009054906101000a900463ffffffff1663ffffffff1663ffffffff16815260200190815260200160002060070160006101000a81548163ffffffff021916908363ffffffff16021790555081600060030160008060000160009054906101000a900463ffffffff1663ffffffff1663ffffffff16815260200190815260200160002060050160006101000a81548160ff021916908360ff16021790555080600060030160008060000160009054906101000a900463ffffffff1663ffffffff1663ffffffff1681526020019081526020016000206006018190555033600060030160008060000160009054906101000a900463ffffffff1663ffffffff1663ffffffff16815260200190815260200160002060090160006101000a81548173ffffffffffffffffffffffffffffffffffffffff021916908373ffffffffffffffffffffffffffffffffffffffff1602179055506116546064600060030160008060000160009054906101000a900463ffffffff1663ffffffff1663ffffffff168152602001908152602001600020600201546132ec90919063ffffffff16565b600060030160008060000160009054906101000a900463ffffffff1663ffffffff1663ffffffff1681526020019081526020016000206008018190555060008001600081819054906101000a900463ffffffff168092919060010191906101000a81548163ffffffff021916908363ffffffff160217905550507f5f9888a0658253e18367fb90e1090bc6276d832639bbeadd11caa5fccfd6999288846000800160009054906101000a900463ffffffff16604051808481526020018381526020018263ffffffff168152602001935050505060405180910390a15050505050505050565b6060600060060160008473ffffffffffffffffffffffffffffffffffffffff1673ffffffffffffffffffffffffffffffffffffffff16815260200190815260200160002060008363ffffffff1663ffffffff16815260200190815260200160002080548060200260200160405190810160405280929190818152602001828054801561181057602002820191906000526020600020906000905b82829054906101000a900463ffffffff1663ffffffff16815260200190600401906020826003010492830192600103820291508084116117d35790505b5050505050905092915050565b6002600060020160003373ffffffffffffffffffffffffffffffffffffffff1673ffffffffffffffffffffffffffffffffffffffff16815260200190815260200160002060050160009054906101000a900460ff16600281111561187d57fe5b146118f0576040517f08c379a000000000000000000000000000000000000000000000000000000000815260040180806020018281038252600b8152602001807f6f6e6c792073656c6c657200000000000000000000000000000000000000000081525060200191505060405180910390fd5b3373ffffffffffffffffffffffffffffffffffffffff16600060030160008363ffffffff1663ffffffff16815260200190815260200160002060090160009054906101000a900473ffffffffffffffffffffffffffffffffffffffff1673ffffffffffffffffffffffffffffffffffffffff16146119d6576040517f08c379a000000000000000000000000000000000000000000000000000000000815260040180806020018281038252600b8152602001807f4f6e6c792053656c6c657200000000000000000000000000000000000000000081525060200191505060405180910390fd5b60011515600060040160008463ffffffff1663ffffffff16815260200190815260200160002060050160008363ffffffff1663ffffffff16815260200190815260200160002060009054906101000a900460ff161515148015611a8c575060001515600060040160008463ffffffff1663ffffffff16815260200190815260200160002060080160008363ffffffff1663ffffffff16815260200190815260200160002060009054906101000a900460ff161515145b8015611aeb575060001515600060040160008463ffffffff1663ffffffff16815260200190815260200160002060060160008363ffffffff1663ffffffff16815260200190815260200160002060009054906101000a900460ff161515145b8015611b4a575060001515600060040160008463ffffffff1663ffffffff168152602001908152602001600020600a0160008363ffffffff1663ffffffff16815260200190815260200160002060009054906101000a900460ff161515145b611bbc576040517f08c379a00000000000000000000000000000000000000000000000000000000081526004018080602001828103825260188152602001807f436f6e646974696f6e73206e6f7420736174697366696564000000000000000081525060200191505060405180910390fd5b6001600060040160008463ffffffff1663ffffffff16815260200190815260200160002060080160008363ffffffff1663ffffffff16815260200190815260200160002060006101000a81548160ff0219169083151502179055503373ffffffffffffffffffffffffffffffffffffffff167f05b102e34405f020a7b4350207965d03947f653afdaaf43fa3a47493e4b1261d83604051808263ffffffff16815260200191505060405180910390a25050565b600080600060608060008060020160003373ffffffffffffffffffffffffffffffffffffffff1673ffffffffffffffffffffffffffffffffffffffff16815260200190815260200160002060000154600060020160003373ffffffffffffffffffffffffffffffffffffffff1673ffffffffffffffffffffffffffffffffffffffff16815260200190815260200160002060010160009054906101000a900467ffffffffffffffff16600060020160003373ffffffffffffffffffffffffffffffffffffffff1673ffffffffffffffffffffffffffffffffffffffff16815260200190815260200160002060020154600060020160003373ffffffffffffffffffffffffffffffffffffffff1673ffffffffffffffffffffffffffffffffffffffff168152602001908152602001600020600301600060020160003373ffffffffffffffffffffffffffffffffffffffff1673ffffffffffffffffffffffffffffffffffffffff168152602001908152602001600020600401600060020160003373ffffffffffffffffffffffffffffffffffffffff1673ffffffffffffffffffffffffffffffffffffffff16815260200190815260200160002060050160009054906101000a900460ff166002811115611e4657fe5b828054600181600116156101000203166002900480601f016020809104026020016040519081016040528092919081815260200182805460018160011615610100020316600290048015611edb5780601f10611eb057610100808354040283529160200191611edb565b820191906000526020600020905b815481529060010190602001808311611ebe57829003601f168201915b5050505050925081805480602002602001604051908101604052809291908181526020018280548015611f5957602002820191906000526020600020906000905b82829054906101000a900463ffffffff1663ffffffff1681526020019060040190602082600301049283019260010382029150808411611f1c5790505b50505050509150955095509550955095509550909192939495565b6000611f7e6123bf565b14611ff1576040517f08c379a000000000000000000000000000000000000000000000000000000000815260040180806020018281038252600e8152602001807f4e6f742041204e6577205573657200000000000000000000000000000000000081525060200191505060405180910390fd5b85600060020160003373ffffffffffffffffffffffffffffffffffffffff1673ffffffffffffffffffffffffffffffffffffffff1681526020019081526020016000206000018190555084600060020160003373ffffffffffffffffffffffffffffffffffffffff1673ffffffffffffffffffffffffffffffffffffffff16815260200190815260200160002060010160006101000a81548167ffffffffffffffff021916908367ffffffffffffffff16021790555083600060020160003373ffffffffffffffffffffffffffffffffffffffff1673ffffffffffffffffffffffffffffffffffffffff168152602001908152602001600020600201819055508282600060020160003373ffffffffffffffffffffffffffffffffffffffff1673ffffffffffffffffffffffffffffffffffffffff1681526020019081526020016000206003019190612145929190613484565b508060ff16600281111561215557fe5b600060020160003373ffffffffffffffffffffffffffffffffffffffff1673ffffffffffffffffffffffffffffffffffffffff16815260200190815260200160002060050160006101000a81548160ff021916908360028111156121b557fe5b02179055503373ffffffffffffffffffffffffffffffffffffffff167fbacb0b7bc92d3e69edeb5d88c6776562a5d760d3ce3039382abce910b8bdd03d876040518082815260200191505060405180910390a2505050505050565b600080600080600060030160008663ffffffff1663ffffffff16815260200190815260200160002060000154600060030160008763ffffffff1663ffffffff16815260200190815260200160002060020154600060030160008863ffffffff1663ffffffff16815260200190815260200160002060060154600060030160008963ffffffff1663ffffffff16815260200190815260200160002060070160009054906101000a900463ffffffff1693509350935093509193509193565b60008060008060008060030160008763ffffffff1663ffffffff16815260200190815260200160002060050160009054906101000a900460ff16600060030160008863ffffffff1663ffffffff16815260200190815260200160002060080154600060030160008963ffffffff1663ffffffff16815260200190815260200160002060010160009054906101000a900460ff16600060030160008a63ffffffff1663ffffffff16815260200190815260200160002060030154600060030160008b63ffffffff1663ffffffff168152602001908152602001600020600401549450945094509450945091939590929450565b60006002600060020160003373ffffffffffffffffffffffffffffffffffffffff1673ffffffffffffffffffffffffffffffffffffffff16815260200190815260200160002060050160009054906101000a900460ff16600281111561242157fe5b141561243057600290506124a4565b6001600060020160003373ffffffffffffffffffffffffffffffffffffffff1673ffffffffffffffffffffffffffffffffffffffff16815260200190815260200160002060050160009054906101000a900460ff16600281111561249057fe5b141561249f57600190506124a4565b600090505b90565b60008060070160008463ffffffff1663ffffffff16815260200190815260200160002060008363ffffffff1663ffffffff16815260200190815260200160002060009054906101000a900463ffffffff16905092915050565b6001600060020160003373ffffffffffffffffffffffffffffffffffffffff1673ffffffffffffffffffffffffffffffffffffffff16815260200190815260200160002060050160009054906101000a900460ff16600281111561256057fe5b146125d3576040517f08c379a000000000000000000000000000000000000000000000000000000000815260040180806020018281038252600a8152602001807f6f6e6c792062757965720000000000000000000000000000000000000000000081525060200191505060405180910390fd5b60005b848490508163ffffffff1610156128c05760001515600060040160008060000160049054906101000a900463ffffffff1663ffffffff1663ffffffff168152602001908152602001600020600401600087878563ffffffff1681811061263857fe5b9050602002013563ffffffff1663ffffffff1663ffffffff16815260200190815260200160002060009054906101000a900460ff161515146126e2576040517f08c379a00000000000000000000000000000000000000000000000000000000081526004018080602001828103825260178152602001807f50726f6475637420416c7265616479204f72646572656400000000000000000081525060200191505060405180910390fd5b60001515600060040160008060000160049054906101000a900463ffffffff1663ffffffff1663ffffffff168152602001908152602001600020600701600087878563ffffffff1681811061273357fe5b9050602002013563ffffffff1663ffffffff1663ffffffff16815260200190815260200160002060009054906101000a900460ff161515146127dd576040517f08c379a00000000000000000000000000000000000000000000000000000000081526004018080602001828103825260158152602001807f50726f64756374206973206f6e2044697370757465000000000000000000000081525060200191505060405180910390fd5b82828263ffffffff168181106127ef57fe5b9050602002013563ffffffff1663ffffffff166000600301600087878563ffffffff1681811061281b57fe5b9050602002013563ffffffff1663ffffffff1663ffffffff16815260200190815260200160002060070160009054906101000a900463ffffffff1663ffffffff1610156128b3576040517f08c379a000000000000000000000000000000000000000000000000000000000815260040180806020018281038252602d815260200180613522602d913960400191505060405180910390fd5b80806001019150506125d6565b506000805b858590508163ffffffff161015612dc9576000600501600080600301600089898663ffffffff168181106128f557fe5b9050602002013563ffffffff1663ffffffff1663ffffffff16815260200190815260200160002060090160009054906101000a900473ffffffffffffffffffffffffffffffffffffffff1673ffffffffffffffffffffffffffffffffffffffff1673ffffffffffffffffffffffffffffffffffffffff1681526020019081526020016000206000800160049054906101000a900463ffffffff1690806001815401808255809150506001900390600052602060002090600891828204019190066004029091909190916101000a81548163ffffffff021916908363ffffffff1602179055506000600601600080600301600089898663ffffffff168181106129f957fe5b9050602002013563ffffffff1663ffffffff1663ffffffff16815260200190815260200160002060090160009054906101000a900473ffffffffffffffffffffffffffffffffffffffff1673ffffffffffffffffffffffffffffffffffffffff1673ffffffffffffffffffffffffffffffffffffffff16815260200190815260200160002060008060000160049054906101000a900463ffffffff1663ffffffff1663ffffffff16815260200190815260200160002086868363ffffffff16818110612ac157fe5b9050602002013563ffffffff1690806001815401808255809150506001900390600052602060002090600891828204019190066004029091909190916101000a81548163ffffffff021916908363ffffffff16021790555083838263ffffffff16818110612b2b57fe5b9050602002013563ffffffff16600060070160008060000160049054906101000a900463ffffffff1663ffffffff1663ffffffff168152602001908152602001600020600088888563ffffffff16818110612b8257fe5b9050602002013563ffffffff1663ffffffff1663ffffffff16815260200190815260200160002060006101000a81548163ffffffff021916908363ffffffff160217905550612c9684848363ffffffff16818110612bdc57fe5b9050602002013563ffffffff1663ffffffff16612c88600060030160008a8a8763ffffffff16818110612c0b57fe5b9050602002013563ffffffff1663ffffffff1663ffffffff16815260200190815260200160002060080154600060030160008b8b8863ffffffff16818110612c4f57fe5b9050602002013563ffffffff1663ffffffff1663ffffffff1681526020019081526020016000206002015461333690919063ffffffff16565b61326690919063ffffffff16565b8201915083838263ffffffff16818110612cac57fe5b9050602002013563ffffffff166000600301600088888563ffffffff16818110612cd257fe5b9050602002013563ffffffff1663ffffffff1663ffffffff16815260200190815260200160002060070160008282829054906101000a900463ffffffff160392506101000a81548163ffffffff021916908363ffffffff1602179055506001600060040160008060000160049054906101000a900463ffffffff1663ffffffff1663ffffffff168152602001908152602001600020600401600088888563ffffffff16818110612d7e57fe5b9050602002013563ffffffff1663ffffffff1663ffffffff16815260200190815260200160002060006101000a81548160ff02191690831515021790555080806001019150506128c5565b5033600060040160008060000160049054906101000a900463ffffffff1663ffffffff1663ffffffff16815260200190815260200160002060000160006101000a81548173ffffffffffffffffffffffffffffffffffffffff021916908373ffffffffffffffffffffffffffffffffffffffff16021790555042600060040160008060000160049054906101000a900463ffffffff1663ffffffff1663ffffffff168152602001908152602001600020600101819055508686600060040160008060000160049054906101000a900463ffffffff1663ffffffff1663ffffffff1681526020019081526020016000206002019190612ec8929190613484565b5080600060040160008060000160049054906101000a900463ffffffff1663ffffffff1663ffffffff16815260200190815260200160002060030181905550600060020160003373ffffffffffffffffffffffffffffffffffffffff1673ffffffffffffffffffffffffffffffffffffffff1681526020019081526020016000206004016000800160049054906101000a900463ffffffff1690806001815401808255809150506001900390600052602060002090600891828204019190066004029091909190916101000a81548163ffffffff021916908363ffffffff16021790555060008001600481819054906101000a900463ffffffff168092919060010191906101000a81548163ffffffff021916908363ffffffff160217905550503373ffffffffffffffffffffffffffffffffffffffff167f05b102e34405f020a7b4350207965d03947f653afdaaf43fa3a47493e4b1261d6000800160049054906101000a900463ffffffff16604051808263ffffffff16815260200191505060405180910390a250505050505050565b60008060000160049054906101000a900463ffffffff1663ffffffff16905090565b60008060006060600060020160008673ffffffffffffffffffffffffffffffffffffffff1673ffffffffffffffffffffffffffffffffffffffff16815260200190815260200160002060000154600060020160008773ffffffffffffffffffffffffffffffffffffffff1673ffffffffffffffffffffffffffffffffffffffff16815260200190815260200160002060010160009054906101000a900467ffffffffffffffff16600060020160008873ffffffffffffffffffffffffffffffffffffffff1673ffffffffffffffffffffffffffffffffffffffff16815260200190815260200160002060020154600060020160008973ffffffffffffffffffffffffffffffffffffffff1673ffffffffffffffffffffffffffffffffffffffff1681526020019081526020016000206003018267ffffffffffffffff169250808054600181600116156101000203166002900480601f0160208091040260200160405190810160405280929190818152602001828054600181600116156101000203166002900480156132505780601f1061322557610100808354040283529160200191613250565b820191906000526020600020905b81548152906001019060200180831161323357829003601f168201915b5050505050905093509350935093509193509193565b60008083141561327957600090506132e6565b600082840290508284828161328a57fe5b04146132e1576040517f08c379a000000000000000000000000000000000000000000000000000000000815260040180806020018281038252602181526020018061354f6021913960400191505060405180910390fd5b809150505b92915050565b600061332e83836040518060400160405280601a81526020017f536166654d6174683a206469766973696f6e206279207a65726f0000000000008152506133be565b905092915050565b6000808284019050838110156133b4576040517f08c379a000000000000000000000000000000000000000000000000000000000815260040180806020018281038252601b8152602001807f536166654d6174683a206164646974696f6e206f766572666c6f77000000000081525060200191505060405180910390fd5b8091505092915050565b6000808311829061346a576040517f08c379a00000000000000000000000000000000000000000000000000000000081526004018080602001828103825283818151815260200191508051906020019080838360005b8381101561342f578082015181840152602081019050613414565b50505050905090810190601f16801561345c5780820380516001836020036101000a031916815260200191505b509250505060405180910390fd5b50600083858161347657fe5b049050809150509392505050565b828054600181600116156101000203166002900490600052602060002090601f016020900481019282601f106134c557803560ff19168380011785556134f3565b828001600101855582156134f3579182015b828111156134f25782358255916020019190600101906134d7565b5b5090506135009190613504565b5090565b5b8082111561351d576000816000905550600101613505565b509056fe496e73756666696369656e74207175616e74697479206f662070726f647563747320746f207075726368617365536166654d6174683a206d756c7469706c69636174696f6e206f766572666c6f77a2646970667358221220cfcde29b5fa538b7f78416b9d0c1db6e05f0f87d9a54eb13b0b9b140872d910164736f6c634300060c0033",
  "immutableReferences": {},
  "source": "// SPDX-License-Identifier: SPECKART\npragma solidity >=0.4.22 <0.8.0;\n\nimport \"./Safemath.sol\";\nimport \"./Database.sol\";\n\n\ncontract AgroRead {\n    using AgroLibrary for AgroLibrary.AgroModel;\n    AgroLibrary.AgroModel Agro;\n\n    modifier onlySeller() {\n        require(uint256(Agro.Users[msg.sender].userType) == 2, \"only seller\");\n        _;\n    }\n    modifier onlyBuyer() {\n        require(uint256(Agro.Users[msg.sender].userType) == 1, \"only buyer\");\n        _;\n    }\n\n    function totalProductID() external view returns (uint256) {\n        return Agro.P_ID;\n    }\n\n    function currentOrderID() external view returns (uint256) {\n        return Agro.O_ID;\n    }\n\n    function Orders(address _seller)\n        external\n        view\n        returns (uint32[] memory orderId)\n    {\n        return (Agro.orderList[_seller]);\n    }\n\n    function productsList(address _seller, uint32 _o_id)\n        external\n        view\n        returns (uint32[] memory prodId)\n    {\n        return (Agro.prodList[_seller][_o_id]);\n    }\n\n    function product1(uint32 _id)\n        public\n        view\n        returns (\n            bytes32 itemName,\n            uint256 itemPrice,\n            bytes32 imageId,\n            uint32 availableCount\n        )\n    {\n        return (\n            Agro.Product[_id].itemName,\n            Agro.Product[_id].itemPrice,\n            Agro.Product[_id].imageId,\n            Agro.Product[_id].availableCount\n        );\n    }\n\n    function product2(uint32 _id)\n        public\n        view\n        returns (\n            uint8 itemColor,\n            uint256 disputePrice,\n            uint8 itemType,\n            bytes32 itemDetails,\n            bytes32 itemBrand\n        )\n    {\n        return (\n            Agro.Product[_id].itemColor,\n            Agro.Product[_id].disputePrice,\n            Agro.Product[_id].itemType,\n            Agro.Product[_id].itemDetails,\n            Agro.Product[_id].itemBrand\n        );\n    }\n\n    function productCount(uint32 _o_id, uint32 _p_id)\n        external\n        view\n        returns (uint32 count)\n    {\n        return (Agro.prodTotal[_o_id][_p_id]);\n    }\n\n    function userOrderDetails(address _addr)\n        external\n        view\n        returns (\n            bytes32 userName,\n            uint256 userContact,\n            bytes32 userEmail,\n            string memory userAddr\n        )\n    {\n        return (\n            Agro.Users[_addr].userName,\n            Agro.Users[_addr].userContact,\n            Agro.Users[_addr].userEmail,\n            Agro.Users[_addr].userAddr\n        );\n    }\n\n    function userDetails()\n        external\n        view\n        returns (\n            bytes32 userName,\n            uint64 userContact,\n            \n            bytes32 userEmail,\n            string memory userAddr,\n            uint32[] memory orders,\n            uint8 userType\n        )\n    {\n        return (\n            Agro.Users[msg.sender].userName,\n            Agro.Users[msg.sender].userContact,\n           \n            Agro.Users[msg.sender].userEmail,\n            Agro.Users[msg.sender].userAddr,\n            Agro.Users[msg.sender].orders,\n            uint8(Agro.Users[msg.sender].userType)\n        );\n    }\n\n    function marketOrder(uint32 _id)\n        external\n        view\n        returns (\n            address BuyerAddr,\n            uint256 timeStamp,\n            string memory orderDetails,\n            uint256 totalPrice\n        )\n    {\n        return (\n            Agro.MarketOrder[_id].BuyerAddr,\n            Agro.MarketOrder[_id].timeStamp,\n            Agro.MarketOrder[_id].orderDetails,\n            Agro.MarketOrder[_id].totalPrice\n        );\n    }\n\n    function productOrder(uint32 _o_id, uint32 _p_id)\n        external\n        view\n        returns (\n            bool isConfirmed,\n            bool isRejected,\n            bool isDispute,\n            bool isShipped,\n            bool isCancelled,\n            bool confirmDelivery\n        )\n    {\n        return (\n            Agro.MarketOrder[_o_id].isConfirmed[_p_id],\n            Agro.MarketOrder[_o_id].isRejected[_p_id],\n            Agro.MarketOrder[_o_id].isDispute[_p_id],\n            Agro.MarketOrder[_o_id].isShipped[_p_id],\n            Agro.MarketOrder[_o_id].isCancelled[_p_id],\n            Agro.MarketOrder[_o_id].confirmDelivery[_p_id]\n        );\n    }\n\n    event SignUp(address indexed user, bytes32 name);\n    event addItem(bytes32 user, bytes32 name, uint256 product_id);\n    event order(address indexed user, uint256 id);\n}\n\n\ncontract AgroKart is AgroRead {\n    using SafeMath for uint256;\n    address TOKEN;\n    address DISP;\n\n    constructor(address _token, address _dispute) public {\n        Agro.P_ID = 100;\n        Agro.O_ID = 10000;\n        Agro.MIN_TIME = 3 minutes;\n        TOKEN = _token;\n        DISP = _dispute;\n    }\n\n    function checkUser() public view returns (uint256 status) {\n        if (uint256(Agro.Users[msg.sender].userType) == 2) {\n            return 2;\n        } else if (uint256(Agro.Users[msg.sender].userType) == 1) {\n            return 1;\n        } \n        return 0;\n    }\n\n    modifier newUser() {\n        require(checkUser() == 0, \"Not A New User\");\n        _;\n    }\n\n    function userSignUp(\n        bytes32 _userName,\n        uint64 _userContact,\n\n        bytes32 _userEmail,\n        string calldata _userAddr,\n        uint8 _type\n    ) external newUser() {\n        Agro.Users[msg.sender].userName = _userName;\n        Agro.Users[msg.sender].userContact = _userContact;\n       \n        Agro.Users[msg.sender].userEmail = _userEmail;\n        Agro.Users[msg.sender].userAddr = _userAddr;\n        Agro.Users[msg.sender].userType = AgroEnums.UserType(_type);\n        emit SignUp(msg.sender, _userName);\n    }\n\n    function addProduct(\n        bytes32 _itemName,\n        uint8 _itemType,\n        uint256 _itemPrice,\n        uint32 _availableCount,\n        bytes32 _itemDetails,\n        bytes32 _itemBrand,\n        uint8 _itemColor,\n        bytes32 _imageId\n    ) external onlySeller {\n       \n        Agro.Product[Agro.P_ID].itemName = _itemName;\n        Agro.Product[Agro.P_ID].itemType = _itemType;\n        Agro.Product[Agro.P_ID].itemPrice = _itemPrice.mul(100);\n        Agro.Product[Agro.P_ID].itemDetails = _itemDetails;\n        Agro.Product[Agro.P_ID].itemBrand = _itemBrand;\n        Agro.Product[Agro.P_ID].availableCount = _availableCount;\n        Agro.Product[Agro.P_ID].itemColor = _itemColor;\n        Agro.Product[Agro.P_ID].imageId = _imageId;\n        Agro.Product[Agro.P_ID].seller = msg.sender;\n        Agro.Product[Agro.P_ID].disputePrice = Agro.Product[Agro.P_ID].itemPrice.div(100);\n      //  IAgroToken(TOKEN).sendTokens(\n        //    Agro.Product[Agro.P_ID].disputePrice.mul(_availableCount);\n       //     msg.sender\n     //   );\n        Agro.P_ID++;\n        emit addItem(_itemName, _itemBrand, Agro.P_ID);\n    }\n\n    function createOrder(\n        string calldata _orderDetails,\n        uint32[] calldata _prodIds,\n        uint32[] calldata _prodCounts\n    ) external onlyBuyer {\n        for (uint32 i = 0; i < _prodIds.length; i++) {\n            require(\n                Agro.MarketOrder[Agro.O_ID].isOrdered[_prodIds[i]] == false,\n                \"Product Already Ordered\"\n            );\n            require(\n                Agro.MarketOrder[Agro.O_ID].isDispute[_prodIds[i]] == false,\n                \"Product is on Dispute\"\n            );\n            require(\n                Agro.Product[_prodIds[i]].availableCount >= _prodCounts[i],\n                \"Insufficient quantity of products to purchase\"\n            );\n           \n        }\n        uint256 total = 0;\n        for (uint32 i = 0; i < _prodIds.length; i++) {\n            Agro.orderList[Agro.Product[_prodIds[i]].seller].push(Agro.O_ID);\n            Agro.prodList[Agro.Product[_prodIds[i]].seller][Agro.O_ID].push(\n                _prodIds[i]\n            );\n            Agro.prodTotal[Agro.O_ID][_prodIds[i]] = _prodCounts[i];\n            total += (Agro.Product[_prodIds[i]].itemPrice.add(Agro.Product[_prodIds[i]].disputePrice)).mul(_prodCounts[i]);\n            Agro.Product[_prodIds[i]].availableCount -= _prodCounts[i];\n            Agro.MarketOrder[Agro.O_ID].isOrdered[_prodIds[i]] = true;\n        }\n\n        Agro.MarketOrder[Agro.O_ID].BuyerAddr = msg.sender;\n        Agro.MarketOrder[Agro.O_ID].timeStamp = now;\n        Agro.MarketOrder[Agro.O_ID].orderDetails = _orderDetails;\n        Agro.MarketOrder[Agro.O_ID].totalPrice = total;\n        Agro.Users[msg.sender].orders.push(Agro.O_ID);\n        Agro.O_ID++;\n      //  IAgroToken(TOKEN).sendTokens(total, msg.sender);\n        emit order(msg.sender, Agro.O_ID);\n    }\n\n    function confirmOrder(uint32 _o_Id, uint32 _p_Id) external onlySeller {\n        require(Agro.Product[_p_Id].seller == msg.sender, \"Only Seller\");\n        require(\n            Agro.MarketOrder[_o_Id].isOrdered[_p_Id] == true &&\n                Agro.MarketOrder[_o_Id].isConfirmed[_p_Id] == false &&\n                Agro.MarketOrder[_o_Id].isRejected[_p_Id] == false &&\n                Agro.MarketOrder[_o_Id].isCancelled[_p_Id] == false,\n            \"Conditions not satisfied\"\n        );\n        Agro.MarketOrder[_o_Id].isConfirmed[_p_Id] = true;\n        emit order(msg.sender, _o_Id);\n    }\n\n\n    function shipOrder(uint32 _o_Id, uint32 _p_Id) external onlySeller {\n        require(Agro.Product[_p_Id].seller == msg.sender, \"Only Seller\");\n        require(\n            Agro.MarketOrder[_o_Id].isConfirmed[_p_Id] == true &&\n                Agro.MarketOrder[_o_Id].isShipped[_p_Id] == false &&\n                Agro.MarketOrder[_o_Id].isRejected[_p_Id] == false &&\n                Agro.MarketOrder[_o_Id].isCancelled[_p_Id] == false,\n            \"Conditions not satisfied\"\n        );\n        Agro.MarketOrder[_o_Id].isShipped[_p_Id] = true;\n        emit order(msg.sender, _o_Id);\n    }\n\n}",
  "sourcePath": "/home/kunal/Desktop/Blockchain/contracts/Agro.sol",
  "compiler": {
    "name": "solc",
    "version": "0.6.12+commit.27d51765.Emscripten.clang"
  },
  "schemaVersion": "3.2.4",
  "updatedAt": "2020-09-11T16:14:45.213Z",
  "devdoc": {
    "kind": "dev",
    "methods": {},
    "version": 1
  },
  "userdoc": {
    "kind": "user",
    "methods": {},
    "version": 1
  }
}